{
  "contractName": "SimpleBank",
  "abi": [
    {
      "inputs": [],
      "payable": false,
      "stateMutability": "nonpayable",
      "type": "constructor"
    },
    {
      "payable": false,
      "stateMutability": "nonpayable",
      "type": "fallback"
    },
    {
      "constant": false,
      "inputs": [
        {
          "name": "_fromAddress",
          "type": "address"
        },
        {
          "name": "_depositAmount",
          "type": "uint256"
        }
      ],
      "name": "deposit",
      "outputs": [],
      "payable": false,
      "stateMutability": "nonpayable",
      "type": "function"
    },
    {
      "constant": false,
      "inputs": [
        {
          "name": "_toAddress",
          "type": "address"
        },
        {
          "name": "_withdrawAmount",
          "type": "uint256"
        }
      ],
      "name": "withdraw",
      "outputs": [],
      "payable": false,
      "stateMutability": "nonpayable",
      "type": "function"
    },
    {
      "constant": true,
      "inputs": [],
      "name": "balance",
      "outputs": [
        {
          "name": "",
          "type": "uint256"
        }
      ],
      "payable": false,
      "stateMutability": "view",
      "type": "function"
    }
  ],
  "bytecode": "0x6060604052341561000f57600080fd5b336000806101000a81548173ffffffffffffffffffffffffffffffffffffffff021916908373ffffffffffffffffffffffffffffffffffffffff1602179055506106ce8061005e6000396000f300606060405260043610610057576000357c0100000000000000000000000000000000000000000000000000000000900463ffffffff16806347e7ef2414610067578063b69ef8a8146100a9578063f3fef3a3146100d2575b341561006257600080fd5b600080fd5b341561007257600080fd5b6100a7600480803573ffffffffffffffffffffffffffffffffffffffff16906020019091908035906020019091905050610114565b005b34156100b457600080fd5b6100bc610251565b6040518082815260200191505060405180910390f35b34156100dd57600080fd5b610112600480803573ffffffffffffffffffffffffffffffffffffffff169060200190919080359060200190919050506103ff565b005b61011c6105ad565b6060604051908101604052808473ffffffffffffffffffffffffffffffffffffffff1681526020016000809054906101000a900473ffffffffffffffffffffffffffffffffffffffff1673ffffffffffffffffffffffffffffffffffffffff1681526020018381525090506001805480600101828161019b91906105fb565b9160005260206000209060030201600083909190915060008201518160000160006101000a81548173ffffffffffffffffffffffffffffffffffffffff021916908373ffffffffffffffffffffffffffffffffffffffff16021790555060208201518160010160006101000a81548173ffffffffffffffffffffffffffffffffffffffff021916908373ffffffffffffffffffffffffffffffffffffffff16021790555060408201518160020155505050505050565b6000806000806000925060009150600090505b6001805490508110156103f4576000809054906101000a900473ffffffffffffffffffffffffffffffffffffffff1673ffffffffffffffffffffffffffffffffffffffff166001828154811015156102b857fe5b906000526020600020906003020160010160009054906101000a900473ffffffffffffffffffffffffffffffffffffffff1673ffffffffffffffffffffffffffffffffffffffff16141561032c5760018181548110151561031557fe5b906000526020600020906003020160020154830192505b6000809054906101000a900473ffffffffffffffffffffffffffffffffffffffff1673ffffffffffffffffffffffffffffffffffffffff1660018281548110151561037357fe5b906000526020600020906003020160000160009054906101000a900473ffffffffffffffffffffffffffffffffffffffff1673ffffffffffffffffffffffffffffffffffffffff1614156103e7576001818154811015156103d057fe5b906000526020600020906003020160020154820191505b8080600101915050610264565b818303935050505090565b6104076105ad565b3373ffffffffffffffffffffffffffffffffffffffff166000809054906101000a900473ffffffffffffffffffffffffffffffffffffffff1673ffffffffffffffffffffffffffffffffffffffff1614151561046257600080fd5b8161046b610251565b1015151561047857600080fd5b6060604051908101604052806000809054906101000a900473ffffffffffffffffffffffffffffffffffffffff1673ffffffffffffffffffffffffffffffffffffffff1681526020018473ffffffffffffffffffffffffffffffffffffffff168152602001838152509050600180548060010182816104f791906105fb565b9160005260206000209060030201600083909190915060008201518160000160006101000a81548173ffffffffffffffffffffffffffffffffffffffff021916908373ffffffffffffffffffffffffffffffffffffffff16021790555060208201518160010160006101000a81548173ffffffffffffffffffffffffffffffffffffffff021916908373ffffffffffffffffffffffffffffffffffffffff16021790555060408201518160020155505050505050565b606060405190810160405280600073ffffffffffffffffffffffffffffffffffffffff168152602001600073ffffffffffffffffffffffffffffffffffffffff168152602001600081525090565b81548183558181151161062857600302816003028360005260206000209182019101610627919061062d565b5b505050565b61069f91905b8082111561069b57600080820160006101000a81549073ffffffffffffffffffffffffffffffffffffffff02191690556001820160006101000a81549073ffffffffffffffffffffffffffffffffffffffff0219169055600282016000905550600301610633565b5090565b905600a165627a7a72305820486a0b9db350f55fce2e79be9ab9b34ed7080a52f53fd7612bfa5b933783c2a80029",
  "source": "pragma solidity ^0.4.18;\r\n\r\n/*\r\n * A simple banking contract\r\n * Initializes with owner, anyone can deposit money but only account owner\r\n * can withdraw money from the account. Also let the owner to check the balance.\r\n * 0x345ca3e014aaf5dca488057592ee47305d9b3e10\r\n */\r\n\r\ncontract SimpleBank {\r\n    struct Transaction {\r\n    address fromAddress;\r\n    address toAddress;\r\n    uint amount;\r\n  }\r\n\r\n  address owner;\r\n  Transaction[] transactions;\r\n\r\n  modifier onlyOwner() {\r\n    require(owner == msg.sender);\r\n    _;\r\n  }\r\n  \r\n  function SimpleBank() public {\r\n    /* Set the owner to the creator of this contract */\r\n    owner = msg.sender;\r\n  }\r\n\r\n  function deposit(address _fromAddress, uint _depositAmount) public {\r\n    /* Add the amount to the user's balance, call the event associated with a deposit,\r\n       then return the balance of the user */\r\n    Transaction memory transaction = Transaction(_fromAddress, owner, _depositAmount);\r\n    transactions.push(transaction);\r\n  }\r\n\r\n  function withdraw(address _toAddress, uint _withdrawAmount) public onlyOwner {\r\n    /* If the sender's balance is at least the amount they want to withdraw,\r\n       Subtract the amount from the sender's balance, and try to send that amount of ether\r\n       to the user attempting to withdraw. IF the send fails, add the amount back to the user's balance\r\n       return the user's balance.*/\r\n    require(balance() >= _withdrawAmount);\r\n    Transaction memory transaction = Transaction(owner, _toAddress, _withdrawAmount);\r\n    transactions.push(transaction);\r\n  }\r\n\r\n  function balance() public view returns (uint) {\r\n    uint paidIn = 0;\r\n    uint paidOut = 0;\r\n    /* Get the balance of the sender of this transaction */\r\n    for (uint i = 0; i < transactions.length; i++) {\r\n      if (transactions[i].toAddress == owner) {\r\n        paidIn += transactions[i].amount;\r\n      }\r\n\r\n      if (transactions[i].fromAddress == owner) {\r\n        paidOut += transactions[i].amount;\r\n      }\r\n    }\r\n\r\n    return paidIn - paidOut;\r\n  }\r\n  \r\n  // Fallback function - Called if other functions don't match call or\r\n  // sent ether without data.\r\n  // Typically, called when invalid data is sent\r\n  // Added so ether sent to this contract is reverted if the contract fails\r\n  // otherwise, the sender's money is transferred to contract\r\n  function() public {\r\n    revert();\r\n  }\r\n}",
  "sourcePath": "E:/NHCE Bookshelf/7th sem/Blockchain/SimpleBank Project/contracts/SimpleBank.sol",
  "compiler": {
    "name": "solc",
    "version": "0.4.18+commit.9cf6e910.Emscripten.clang"
  },
  "schemaVersion": "3.0.16",
  "updatedAt": "2019-10-20T06:15:24.306Z",
  "devdoc": {
    "methods": {}
  },
  "userdoc": {
    "methods": {}
  }
}